:020000020000FC
:1000000000C000E00AB904B90FEF07B939D033B125
:100010003030E1F319B1103009F0F8CF2FEF28B9E3
:1000200003D020E028B9F2CF0AD009D008D007D0F9
:1000300006D005D004D003D002D001D008950AD054
:1000400009D008D007D006D005D004D003D002D004
:1000500001D008950AD009D008D007D006D005D025
:1000600004D003D002D001D008950AD009D008D01E
:1000700007D006D005D004D003D002D001D0089517
:100080000F9303E6000000000000000000000000E5
:1000900000000000000000000A95A1F70F910895EC
:00000001FF
